:0400000029EF02F0F2
:04003E003901530130
:02004600470170
:0200A8005901FC
:100108000000016E310E026E400E036E000000000A
:10011800032E8AEF00F000000000022E88EF00F0A6
:10012800050E046E042E96EF00F00000012E9EEFDF
:1001380000F012000000000000000000000086EF40
:1001480000F00000006EFA0E84EC00F0FA0E84EC69
:1001580000F0FA0E84EC00F0FA0E84EC00F0002EA9
:10016800A7EF00F012000401006B086B106B186B0E
:10017800206B1D0E016F030E096F116B196B010EB9
:10018800216FBE6BBF6B180EC06FC16BC26BFF0EC9
:10019800C66FEF0EC76FE30EC86FF00EC96FFF0E84
:1001A800CA6F026B0A6B180E126F1A6B226B120061
:1001B8000401BF8BFA0E84EC00F00401BF9BFA0E19
:1001C80084EC00F00401BF8BFA0E84EC00F004010B
:1001D800BF9BFA0E84EC00F003011E6B1F6B010E2F
:1001E800216F800E056E22EC01F0030106501C6F92
:1001F80007501D6F0301330E1E6F0401B1990401EE
:10020800A1890401C1831200056E0401D69F22EC66
:1002180001F00401D68F1200140E052603E20550E2
:1002280008EF01F0FF0E08EF01F0140E055E03E37E
:10023800055008EF01F0000E08EF01F0076A0550BD
:10024800066ED89006360736D89006360736D89008
:1002580006360736D890063607360550065ED8A00B
:100268000706780E0626EC0E072212000101018F00
:100278000101040E036F01010251E00B800AFBE14A
:100288000101000E4C6F380E4D6F0101870E016F92
:100298000101006B0101900E026F0101170E046F3E
:1002A800170E056F260E066F010E076F0101800EEF
:1002B800506F040E516F600E526F050E536F01019F
:1002C800010E5C6F040E5D6F5E6B050E5F6F0101C2
:1002D800010E806F01018C6B8D6B8E6B8F6B010132
:1002E800906B916B926B400E936F0101808F0101AF
:1002F800060E036F01010251E00BC00AFBE1120078
:10030800010160B1010C000C01016451146E6551CA
:10031800156E380E15261450E96E1550EA6EEE501B
:10032800106EEE50070B116EEE50EE50EE500F0BA4
:10033800126EEE50EE50EE50EE50086EEE50096E12
:10034800EE500A6EEE500B6EEE500C6EEE500D6EC7
:10035800EE500E6EEE500F6E01015D8112001050CE
:10036800120012501200126E01015851146E5951A8
:10037800156E380E15261450E96E1550EA6E105099
:10038800EE6E1150070BEE6EEE6AEE6A12500F0B0E
:10039800EE6EEE6AEE6AEE6A0850EE6E0950EE6E88
:1003A8000A50EE6E0B50EE6E0C50EE6E0D50EE6E67
:1003B8000E50EE6E0F50EE6E0101030E516F1200DB
:1003C8000401CF51030B166E176E030E186E03014E
:1003D800246B010E266F000E256F000E276F7C0E12
:1003E800236F226BF90E246F0401B1970401A187D2
:1003F80012001F500DE0216E0401C181640E84ECCF
:1004080000F00401C191C80E84EC00F0212EF4D74D
:100418001200040108950401C7850401D68B040164
:10042800B8910401A88103011A6B03014F0E1B6FD9
:100438000401B19F0401A18F1C6A1D6A1E6A1F6A0C
:10044800206A216A03011A8F1200B7EC00F0040138
:10045800C181FA0E84EC00F0C191FA0E84EC00F030
:10046800C181FA0E84EC00F0C191E4EC01F0165061
:10047800226EDCEC00F00DEC02F03AEC01F0040125
:10048800D68DD68F640E84EC00F0246A0ED0C80E88
:1004980084EC00F04AEF02F04AEF02F00401BE8358
:1004A800640E84EC00F00401BE9316502218221446
:1004B800236E1650226E23A067EC02F023A26CEC88
:1004C80002F04AEF02F010EC01F00401C1811200C1
:0A04D80019EC01F00401C1911200BB
:1004E4000401B1970401CF51030B0401CE51030B56
:1004F400171806E00401CF51030B176E186A110098
:10050400182A030E186088EF02F011001750166EB7
:06051400030E186E110039
:10051C000401B19F1E2A060E1E5CD8A410D0040143
:10052C00C181640E84EC00F00401C1911E6A1C5060
:10053C001F6E1D50206E1C6A1D6AFDEC01F011002F
:10054C000401B1990401C1750401BF7B030106507C
:10055C001C6F07501D6F11000401B8910401C17587
:08056C001C3E01D01D2A110004
:020000040030CA
:100000008CFFFFFF9FFFFFFFFFFFFFFFFFFFFFFFD3
:10001000FFFFFFFFFFFFFFFFFFFFFFFFFFFFFFFFF0
:03002000FFFFFFE0
:00000001FF
