:04000000F0EF01F02C
:04003E001401200188
:100108000000016E310E026E400E036E000000000A
:10011800032E8AEF00F000000000022E88EF00F0A6
:10012800050E046E042E96EF00F00000012E9EEFDF
:1001380000F012000000000000000000000086EF40
:1001480000F00000006EFA0E84EC00F0FA0E84EC69
:1001580000F0FA0E84EC00F0FA0E84EC00F0002EA9
:10016800A7EF00F012000401006B086B106B186B0E
:10017800206B016B030E096F116B196B216BBE6B42
:10018800BF6BC06BC16BC26BFF0EC66FC76FFB0E38
:10019800C86FF80EC96FFF0ECA6F12000401C08540
:1001A800FA0E84EC00F0C095FA0E84EC00F0C085DD
:1001B800FA0E84EC00F0C095FA0E84EC00F003010E
:1001C8001E6B1F6B010E216F800E056E15EC01F082
:1001D800030106501C6F07501D6F0301330E1E6F7D
:1001E8000401B1990401A1890401C1831200056EBB
:1001F8000401D69F15EC01F00401D68F1200140EED
:10020800052603E20550FBEF00F0FF0EFBEF00F0C0
:10021800140E055E03E30550FBEF00F0000EFBEF44
:1002280000F0076A0550066ED89006360736D89053
:1002380006360736D89006360736D890063607367B
:100248000550065ED8A00706780E0626EC0E072293
:1002580012000101018F0101040E036F0101025117
:10026800E00B800AFBE10101000E4C6F380E4D6F68
:100278000101870E016F0101006B0101900E026FF1
:100288000101170E046F170E056F260E066F010E7B
:10029800076F0101800E506F040E516F600E526F90
:1002A800050E536F0101010E5C6F040E5D6F5E6BEE
:1002B800050E5F6F0101010E806F01018C6B8D6B64
:1002C8008E6B8F6B0101906B916B926B400E936FED
:1002D8000101808F0101060E036F01010251E00B3D
:1002E800C00AFBE11200010160B1010C000C010120
:1002F8006451146E6551156E380E15261450E96E4A
:100308001550EA6EEE50106EEE50070B116EEE505F
:10031800EE50EE500F0B126EEE50EE50EE50EE50C7
:10032800086EEE50096EEE500A6EEE500B6EEE50EF
:100338000C6EEE500D6EEE500E6EEE500F6E01010B
:100348005D8112001050120012501200126E01014D
:100358005851146E5951156E380E15261450E96E01
:100368001550EA6E1050EE6E1150070BEE6EEE6AE5
:10037800EE6A12500F0BEE6EEE6AEE6AEE6A0850E5
:10038800EE6E0950EE6E0A50EE6E0B50EE6E0C508B
:10039800EE6E0D50EE6E0E50EE6E0F50EE6E0101C9
:1003A800030E516F12000401CF51030B166E176E26
:1003B800030E186E0301246B010E266F000E256FC5
:1003C800000E276F7C0E236F226BF90E246F040139
:1003D800B1970401A1871200B7EC00F00401C181B4
:1003E800FA0E84EC00F0C191FA0E84EC00F0C181A1
:1003F800FA0E84EC00F0C191D7EC01F01650196E9A
:10040800D2EC00F00401D68DD68F640E84EC00F097
:100418001650191819141A6E1650196E1AA01DECD8
:1004280002F01AA222EC02F0140E84EC00F00CEF99
:1004380002F003EC01F00401C18112000CEC01F0A0
:060448000401C191120045
:100450000401B1970401CF51030B171806E0040102
:10046000CF51030B176E186A1100182A030E18607B
:100470003BEF02F011001750166E030E186E1100BC
:100480000401B1990401C1750401C075030106504E
:080490001C6F07501D6F1100E5
:020000040030CA
:100000008CFFFFFF9FFFFFFFFFFFFFFFFFFFFFFFD3
:10001000FFFFFFFFFFFFFFFFFFFFFFFFFFFFFFFFF0
:03002000FFFFFFE0
:00000001FF
