:0400000032EF03F0E8
:04003E00F8011002B3
:020046000402B2
:0200A80016023E
:100108000000016E310E026E400E036E000000000A
:10011800032E8AEF00F000000000022E88EF00F0A6
:10012800050E046E042E96EF00F00000012E9EEFDF
:1001380000F012000000000000000000000086EF40
:1001480000F00000006EFA0E84EC00F0FA0E84EC69
:1001580000F0FA0E84EC00F0FA0E84EC00F0002EA9
:10016800A7EF00F012000401006B086B106B186B0E
:10017800206B016B030E096F116B196B216BBE6B42
:10018800BF6B180EC06FC16BC26BFF0EC66FFF0E40
:10019800C76FE30EC86FF00EC96FFF0ECA6F026B10
:1001A8000A6B180E126F1A6B226B12000401C085BD
:1001B800FA0E84EC00F0C095FA0E84EC00F0C085CD
:1001C800FA0E84EC00F0C095FA0E84EC00F00301FE
:1001D8001E6B1F6B010E216F800E056E1DEC01F06A
:1001E800030106501C6F07501D6F0301330E1E6F6D
:1001F8000401B1990401A1890401C1831200056EAB
:100208000401D69F1DEC01F00401D68F1200140ED4
:10021800052603E2055003EF01F0FF0E03EF01F09E
:10022800140E055E03E3055003EF01F0000E03EF23
:1002380001F0076A0550066ED89006360736D89042
:1002480006360736D89006360736D890063607366B
:100258000550065ED8A00706780E0626EC0E072283
:1002680012000101018F0101040E036F0101025107
:10027800E00B800AFBE10101000E4C6F380E4D6F58
:100288000101870E016F0101006B0101900E026FE1
:100298000101170E046F170E056F260E066F010E6B
:1002A800076F0101800E506F040E516F600E526F80
:1002B800050E536F0101010E5C6F040E5D6F5E6BDE
:1002C800050E5F6F0101010E806F01018C6B8D6B54
:1002D8008E6B8F6B0101906B916B926B400E936FDD
:1002E8000101808F0101060E036F01010251E00B2D
:1002F800C00AFBE11200010160B1010C000C010110
:100308006451146E6551156E380E15261450E96E39
:100318001550EA6EEE50106EEE50070B116EEE504F
:10032800EE50EE500F0B126EEE50EE50EE50EE50B7
:10033800086EEE50096EEE500A6EEE500B6EEE50DF
:100348000C6EEE500D6EEE500E6EEE500F6E0101FB
:100358005D8112001050120012501200126E01013D
:100368005851146E5951156E380E15261450E96EF1
:100378001550EA6E1050EE6E1150070BEE6EEE6AD5
:10038800EE6A12500F0BEE6EEE6AEE6AEE6A0850D5
:10039800EE6E0950EE6E0A50EE6E0B50EE6E0C507B
:1003A800EE6E0D50EE6E0E50EE6E0F50EE6E0101B9
:1003B800030E516F12000401CF51030B166E176E16
:1003C800030E186E0301246B010E266F000E256FB5
:1003D800000E276F7C0E236F226BF90E246F040129
:1003E800B1970401A18712001C500DE01E6E040194
:1003F800C181640E84EC00F00401C191C80E84EC44
:1004080000F01E2EF4D71200040108950401C785D8
:100418000401D68B0401B8910401A88103011A6B69
:1004280003014F0E1B6F0401B19F0401A18F196ACC
:100438001A6A1B6A1C6A1D6A1E6A03011A8F120057
:100448001B0E286E282EFED712000401C089C08713
:1004580024EC02F0C09924EC02F0C09724EC02F0DE
:1004680012000401C09924EC02F0C08724EC02F0C9
:10047800C08924EC02F01200266E080E276E0401D3
:10048800C09726AEC09926BEC089264624EC02F045
:100498000401C08724EC02F0272EF1D70401C0978D
:1004A800C08924EC02F0C08724EC02F0D0A91F6AAE
:1004B800D0B9010ED0B91F6EC09724EC02F012001B
:1004C800256E29EC02F0205040EC02F02550211056
:1004D80040EC02F035EC02F01200246E2250241297
:1004E800245064EC02F02450040964EC02F0245017
:1004F800FB0B64EC02F0010E84EC00F01200236E9A
:10050800226A2350F00B71EC02F02338F00B71ECE7
:1005180002F01200400E206E29EC02F0205040EC50
:1005280002F035EC02F01F6601D01200020E202600
:10053800500E206203D0700E206EEED7800E20621F
:10054800EBD7206A1200080E216E000E64EC02F050
:100558001E0E84EC00F0030E83EC02F0050E84EC12
:1005680000F0030E83EC02F0050E84EC00F0030E9D
:1005780083EC02F0050E84EC00F0020E83EC02F02E
:10058800050E84EC00F0280E83EC02F0320E84ECA9
:1005980000F00C0E83EC02F0320E84EC00F0010E39
:1005A80083EC02F0320E84EC00F0060E83EC02F0CD
:1005B800320E84EC00F01200010E83EC02F0030E00
:1005C80084EC00F0800E83EC02F01200800E83ECC5
:1005D80002F01200C00E83EC02F01200236E010E2E
:1005E800226E2350F00B71EC02F02338F00B71EC03
:1005F80002F012002A6E2B6A296A640E2A5C03E351
:100608002A6E292AFAD729502B6E04E0300FF2EC13
:1006180002F003D0200EF2EC02F0296A0A0E2A5CDE
:1006280003E32A6E292AFAD729500AE12B6604D057
:10063800200EF2EC02F007D0300EF2EC02F003D0FC
:10064800300FF2EC02F02A50300FF2EC02F01200F8
:10065800EE5003E0F2EC02F0FBD71200B7EC00F02A
:100668000401C181FA0E84EC00F0C191FA0E84EC09
:1006780000F0C181FA0E84EC00F0C191DFEC01F0CA
:1006880016502C6EDAEC00F008EC02F08EEC02F05A
:100698001F660FD0030E2C6E0401C181500E84EC2E
:1006A80000F00401C191500E84EC00F02C2EF4D718
:1006B80006D00401C171780E84EC00F0FAD7165008
:1006C8002C6EA7EC02F0EAEC02F0480EF2EC02F015
:1006D800650EF2EC02F06C0EF2EC02F06C0EF2EC2D
:1006E80002F06F0EF2EC02F0EEEC02F0570EF2ECB4
:1006F80002F06F0EF2EC02F0720EF2EC02F06C0EE9
:10070800F2EC02F0640EF2EC02F0210EF2EC02F0D0
:100718000401D68DD68F640E84EC00F02E6A165034
:100728002C182C142D6E16502C6E2DA0A7EC03F04F
:100738002DA2ACEC03F02E2AB1EC03F0C80E84EC29
:1007480000F093EF03F00BEC01F00401C1811200FB
:1007580014EC01F00401C19112000401D69F1C5051
:100768002F6E1D50306ED68F800E83EC02F0480E2F
:10077800F2EC02F0610EF2EC02F06C0EF2EC02F018
:100788006C0EF2EC02F0480EF2EC02F03A0EF2ECCB
:1007980002F0200EF2EC02F03050FEEC02F0C00E37
:1007A80083EC02F0480EF2EC02F0610EF2EC02F07B
:1007B8006C0EF2EC02F06C0EF2EC02F04C0EF2EC65
:1007C80002F03A0EF2EC02F0200EF2EC02F02F509A
:0607D800FEEC02F012002D
:1007E0000401B1970401CF51030B171806E004016F
:1007F000CF51030B176E186A1100182A030E1860E8
:1008000003EF04F011001750166E030E186E11005E
:100810000401B19F1B2A060E1B5CD8A410D0040152
:10082000C181640E84EC00F00401C1911B6A19506F
:100830001C6E1A501D6E196A1A6AF8EC01F011004C
:100840000401B1990401C1750401C075030106508A
:100850001C6F07501D6F11000401B8910401C17590
:08086000193E01D01A2A110013
:020000040030CA
:100000008CFFFFFF9FFFFFFFFFFFFFFFFFFFFFFFD3
:10001000FFFFFFFFFFFFFFFFFFFFFFFFFFFFFFFFF0
:03002000FFFFFFE0
:00000001FF
