:04000000FAEF01F022
:04003E001501210186
:100108000000016E310E026E400E036E000000000A
:10011800032E8AEF00F000000000022E88EF00F0A6
:10012800050E046E042E96EF00F00000012E9EEFDF
:1001380000F012000000000000000000000086EF40
:1001480000F00000006EFA0E84EC00F0FA0E84EC69
:1001580000F0FA0E84EC00F0FA0E84EC00F0002EA9
:10016800A7EF00F012000401006B086B106B186B0E
:10017800206BFF0E016F096F116F196F216FBE6B36
:10018800BF6BC06BC16BC26BFF0EC66FC76FFB0E38
:10019800C86FF80EC96FFF0ECA6F12000401C08540
:1001A800FA0E84EC00F0C095FA0E84EC00F0C085DD
:1001B800FA0E84EC00F0C095FA0E84EC00F003010E
:1001C8001E6B1F6B010E216FC00E1C6F630E1D6F1F
:1001D800330E1E6F066A800E056E13EC01F00401E3
:1001E800B1990401A189C1831200056E0401D69F4B
:1001F80013EC01F00401D68F1200050E052603E268
:100208000550F9EF00F0FF0EF9EF00F0050E055E5E
:1002180003E30550F9EF00F0000EF9EF00F0086A6B
:100228000550076ED89007360836D8900736083636
:10023800D89007360836D89007360836E80E0726CD
:10024800030E082207504008096E0850D8A0010F75
:100258009C080A6E071E081E074A082A091E0A1E5D
:10026800094A0A2A12000101018F0101040E036FD5
:1002780001010251E00B800AFBE10101000E4C6F05
:10028800380E4D6F0101870E016F0101006B0101EE
:10029800900E026F0101170E046F170E056F260EE0
:1002A800066F010E076F0101800E506F040E516F2B
:1002B800600E526F050E536F0101010E5C6F040E44
:1002C8005D6F5E6B050E5F6F0101010E806F0101AE
:1002D8008C6B8D6B8E6B8F6B0101906B916B926B3E
:1002E800400E936F0101808F0101060E036F01011B
:1002F8000251E00BC00AFBE11200010160B1010CE0
:10030800000C01016451176E6551186E380E1826DD
:100318001750E96E1850EA6EEE50136EEE50070B48
:10032800146EEE50EE50EE500F0B156EEE50EE5070
:10033800EE50EE500B6EEE500C6EEE500D6EEE5011
:100348000E6EEE500F6EEE50106EEE50116EEE50B7
:10035800126E01015D811200135012001550120037
:10036800156E01015851176E5951186E380E18261E
:100378001750E96E1850EA6E1350EE6E1450070BC2
:10038800EE6EEE6AEE6A15500F0BEE6EEE6AEE6ACE
:10039800EE6A0B50EE6E0C50EE6E0D50EE6E0E5077
:1003A800EE6E0F50EE6E1050EE6E1150EE6E125053
:1003B800EE6E0101030E516F12000401CF51030BC1
:1003C800196E1A6E030E1B6E0301246B010E266F45
:1003D800000E256F000E276F7C0E236F226BF90E1F
:1003E800246F0401B1970401A1871200B7EC00F053
:1003F8000401C181FA0E84EC00F0C191FA0E84EC7C
:1004080000F0C181FA0E84EC00F0C191E1EC01F03A
:10041800D2EC00F00401D68DD68F640E84EC00F087
:1004280019A01FEC02F019A224EC02F0140E84ECBF
:1004380000F014EF02F001EC01F00401C181120098
:0A0448000AEC01F00401C19112005A
:100454000401B1970401CF51030B1A1806E00401FB
:10046400CF51030B1A6E1B6A11001B2A030E1B606B
:100474003DEF02F011001A50196E030E1B6E1100AD
:100484000401B199C17506B050EF02F0C0850301B3
:1004940007501C6F08501D6F06801100C0950301A2
:0C04A40009501C6F0A501D6F06901100DB
:020000040030CA
:100000008CFFFFFF9FFFFFFFFFFFFFFFFFFFFFFFD3
:10001000FFFFFFFFFFFFFFFFFFFFFFFFFFFFFFFFF0
:03002000FFFFFFE0
:00000001FF
