:04000000D3EFFFF04B
:020000040001F9
:10FD60000000016E310E026E400E036E00000000B6
:10FD7000032EB6EFFEF000000000022EB4EFFEF0FE
:10FD8000050E046E042EC2EFFEF00000012ECAEF35
:10FD9000FEF0120000000000000000000000B2EFC2
:10FDA000FEF00000006EFA0EB0ECFEF0FA0EB0ECC1
:10FDB000FEF0FA0EB0ECFEF0FA0EB0ECFEF0002E03
:10FDC000D3EFFEF01200040110950401C895040160
:10FDD000C095800E056E1200056E12000401C085EC
:10FDE000200E066E520E076E072EF4EFFEF0062E62
:10FDF000F2EFFEF005500CE0066E270E076E072EA0
:10FE0000FFEFFEF0000000000000062EFDEFFEF008
:10FE10000401C095120EB0ECFEF01200050E05268E
:10FE200001E21200FF0E056E1200050E055E01E3F1
:10FE30001200056A12000401089108930401C79199
:10FE4000C7830401BF810201090E3D6F0201460E06
:10FE5000096F0101018F0101040E036F01010251BD
:10FE6000E00B800AFBE10101000E4C6F380E4D6F74
:10FE70000101870E016F0101006B0101900E026FFD
:10FE80000101170E046F170E056F260E066F010E87
:10FE9000076F0101800E506F040E516F600E526F9C
:10FEA000050E536F0101010E5C6F040E5D6F5E6BFA
:10FEB000050E5F6F0101010E806F01018C6B8D6B70
:10FEC0008E6B8F6B0101906B916B926B400E936FF9
:10FED0000101808F0101060E036F01010251E00B49
:10FEE000C00AFBE11200010160B1010C000C01012C
:10FEF0006451146E6551156E380E15261450E96E56
:10FF00001550EA6EEE50106EEE50070B116EEE506B
:10FF1000EE50EE500F0B126EEE50EE50EE50EE50D3
:10FF2000086EEE50096EEE500A6EEE500B6EEE50FB
:10FF30000C6EEE500D6EEE500E6EEE500F6E010117
:10FF40005D8112001050120012501200126E010159
:10FF50005851146E5951156E380E15261450E96E0D
:10FF60001550EA6E1050EE6E1150070BEE6EEE6AF1
:10FF7000EE6A12500F0BEE6EEE6AEE6AEE6A0850F1
:10FF8000EE6E0950EE6E0A50EE6E0B50EE6E0C5097
:10FF9000EE6E0D50EE6E0E50EE6E0F50EE6E0101D5
:10FFA000030E516F12000401089108930401C781E8
:10FFB000C783040109810983040118910401C991CF
:10FFC0000401C191E3ECFEF0EEECFEF0EEECFEF08D
:10FFD000EEECFEF00401CFA1F6ECFFF00401CFA39C
:10FFE000FBECFFF0EEECFEF0EAEFFFF00EECFFF0C2
:10FFF0000401C181120015ECFFF00401C19112004F
:020000040030CA
:100000008CFFFFFF9FFFFFFFFFFFFFFFFFFFFFFFD3
:10001000FFFFFFFFFFFFFFFFFFFFFFFFFFFFFFFFF0
:03002000FFFFFFE0
:00000001FF
